{
  "contractName": "DeedIPFSToken",
  "abi": [
    {
      "inputs": [],
      "payable": false,
      "stateMutability": "nonpayable",
      "type": "constructor"
    },
    {
      "anonymous": false,
      "inputs": [
        {
          "indexed": true,
          "internalType": "address",
          "name": "_owner",
          "type": "address"
        },
        {
          "indexed": true,
          "internalType": "address",
          "name": "_approved",
          "type": "address"
        },
        {
          "indexed": true,
          "internalType": "uint256",
          "name": "_tokenId",
          "type": "uint256"
        }
      ],
      "name": "Approval",
      "type": "event"
    },
    {
      "anonymous": false,
      "inputs": [
        {
          "indexed": true,
          "internalType": "address",
          "name": "_owner",
          "type": "address"
        },
        {
          "indexed": true,
          "internalType": "address",
          "name": "_operator",
          "type": "address"
        },
        {
          "indexed": false,
          "internalType": "bool",
          "name": "_approved",
          "type": "bool"
        }
      ],
      "name": "ApprovalForAll",
      "type": "event"
    },
    {
      "anonymous": false,
      "inputs": [
        {
          "indexed": true,
          "internalType": "address",
          "name": "_from",
          "type": "address"
        },
        {
          "indexed": true,
          "internalType": "address",
          "name": "_to",
          "type": "address"
        },
        {
          "indexed": true,
          "internalType": "uint256",
          "name": "_tokenId",
          "type": "uint256"
        }
      ],
      "name": "Transfer",
      "type": "event"
    },
    {
      "constant": true,
      "inputs": [
        {
          "internalType": "uint256",
          "name": "",
          "type": "uint256"
        }
      ],
      "name": "allTokens",
      "outputs": [
        {
          "internalType": "string",
          "name": "ipfsHash",
          "type": "string"
        }
      ],
      "payable": false,
      "stateMutability": "view",
      "type": "function"
    },
    {
      "constant": true,
      "inputs": [
        {
          "internalType": "uint256",
          "name": "",
          "type": "uint256"
        }
      ],
      "name": "allValidTokenIds",
      "outputs": [
        {
          "internalType": "uint256",
          "name": "",
          "type": "uint256"
        }
      ],
      "payable": false,
      "stateMutability": "view",
      "type": "function"
    },
    {
      "constant": true,
      "inputs": [],
      "name": "owner",
      "outputs": [
        {
          "internalType": "address payable",
          "name": "",
          "type": "address"
        }
      ],
      "payable": false,
      "stateMutability": "view",
      "type": "function"
    },
    {
      "constant": true,
      "inputs": [
        {
          "internalType": "bytes4",
          "name": "interfaceID",
          "type": "bytes4"
        }
      ],
      "name": "supportsInterface",
      "outputs": [
        {
          "internalType": "bool",
          "name": "",
          "type": "bool"
        }
      ],
      "payable": false,
      "stateMutability": "view",
      "type": "function"
    },
    {
      "constant": true,
      "inputs": [
        {
          "internalType": "address",
          "name": "_owner",
          "type": "address"
        }
      ],
      "name": "balanceOf",
      "outputs": [
        {
          "internalType": "uint256",
          "name": "",
          "type": "uint256"
        }
      ],
      "payable": false,
      "stateMutability": "view",
      "type": "function"
    },
    {
      "constant": true,
      "inputs": [
        {
          "internalType": "uint256",
          "name": "_tokenId",
          "type": "uint256"
        }
      ],
      "name": "ownerOf",
      "outputs": [
        {
          "internalType": "address",
          "name": "",
          "type": "address"
        }
      ],
      "payable": false,
      "stateMutability": "view",
      "type": "function"
    },
    {
      "constant": false,
      "inputs": [
        {
          "internalType": "address",
          "name": "_from",
          "type": "address"
        },
        {
          "internalType": "address",
          "name": "_to",
          "type": "address"
        },
        {
          "internalType": "uint256",
          "name": "_tokenId",
          "type": "uint256"
        }
      ],
      "name": "transferFrom",
      "outputs": [],
      "payable": true,
      "stateMutability": "payable",
      "type": "function"
    },
    {
      "constant": false,
      "inputs": [
        {
          "internalType": "address",
          "name": "_from",
          "type": "address"
        },
        {
          "internalType": "address",
          "name": "_to",
          "type": "address"
        },
        {
          "internalType": "uint256",
          "name": "_tokenId",
          "type": "uint256"
        }
      ],
      "name": "safeTransferFrom",
      "outputs": [],
      "payable": true,
      "stateMutability": "payable",
      "type": "function"
    },
    {
      "constant": false,
      "inputs": [
        {
          "internalType": "address",
          "name": "_from",
          "type": "address"
        },
        {
          "internalType": "address",
          "name": "_to",
          "type": "address"
        },
        {
          "internalType": "uint256",
          "name": "_tokenId",
          "type": "uint256"
        },
        {
          "internalType": "bytes",
          "name": "data",
          "type": "bytes"
        }
      ],
      "name": "safeTransferFrom",
      "outputs": [],
      "payable": true,
      "stateMutability": "payable",
      "type": "function"
    },
    {
      "constant": false,
      "inputs": [
        {
          "internalType": "address",
          "name": "_approved",
          "type": "address"
        },
        {
          "internalType": "uint256",
          "name": "_tokenId",
          "type": "uint256"
        }
      ],
      "name": "approve",
      "outputs": [],
      "payable": true,
      "stateMutability": "payable",
      "type": "function"
    },
    {
      "constant": false,
      "inputs": [
        {
          "internalType": "address",
          "name": "_operator",
          "type": "address"
        },
        {
          "internalType": "bool",
          "name": "_approved",
          "type": "bool"
        }
      ],
      "name": "setApprovalForAll",
      "outputs": [],
      "payable": false,
      "stateMutability": "nonpayable",
      "type": "function"
    },
    {
      "constant": true,
      "inputs": [
        {
          "internalType": "uint256",
          "name": "_tokenId",
          "type": "uint256"
        }
      ],
      "name": "getApproved",
      "outputs": [
        {
          "internalType": "address",
          "name": "",
          "type": "address"
        }
      ],
      "payable": false,
      "stateMutability": "view",
      "type": "function"
    },
    {
      "constant": true,
      "inputs": [
        {
          "internalType": "address",
          "name": "_owner",
          "type": "address"
        },
        {
          "internalType": "address",
          "name": "_operator",
          "type": "address"
        }
      ],
      "name": "isApprovedForAll",
      "outputs": [
        {
          "internalType": "bool",
          "name": "",
          "type": "bool"
        }
      ],
      "payable": false,
      "stateMutability": "view",
      "type": "function"
    },
    {
      "constant": false,
      "inputs": [
        {
          "internalType": "string",
          "name": "ipfsHash",
          "type": "string"
        }
      ],
      "name": "mint",
      "outputs": [],
      "payable": false,
      "stateMutability": "nonpayable",
      "type": "function"
    },
    {
      "constant": true,
      "inputs": [
        {
          "internalType": "uint256",
          "name": "_number",
          "type": "uint256"
        }
      ],
      "name": "getAllNFTs",
      "outputs": [
        {
          "internalType": "uint256",
          "name": "",
          "type": "uint256"
        },
        {
          "internalType": "string",
          "name": "",
          "type": "string"
        },
        {
          "internalType": "address",
          "name": "",
          "type": "address"
        }
      ],
      "payable": false,
      "stateMutability": "view",
      "type": "function"
    },
    {
      "constant": true,
      "inputs": [],
      "name": "getLength",
      "outputs": [
        {
          "internalType": "uint256",
          "name": "",
          "type": "uint256"
        }
      ],
      "payable": false,
      "stateMutability": "view",
      "type": "function"
    },
    {
      "constant": false,
      "inputs": [
        {
          "internalType": "uint256",
          "name": "_tokenId",
          "type": "uint256"
        }
      ],
      "name": "burn",
      "outputs": [],
      "payable": false,
      "stateMutability": "nonpayable",
      "type": "function"
    },
    {
      "constant": true,
      "inputs": [],
      "name": "baseTokenURI",
      "outputs": [
        {
          "internalType": "string",
          "name": "",
          "type": "string"
        }
      ],
      "payable": false,
      "stateMutability": "pure",
      "type": "function"
    },
    {
      "constant": true,
      "inputs": [],
      "name": "totalSupply",
      "outputs": [
        {
          "internalType": "uint256",
          "name": "",
          "type": "uint256"
        }
      ],
      "payable": false,
      "stateMutability": "view",
      "type": "function"
    },
    {
      "constant": true,
      "inputs": [
        {
          "internalType": "uint256",
          "name": "index",
          "type": "uint256"
        }
      ],
      "name": "tokenByIndex",
      "outputs": [
        {
          "internalType": "uint256",
          "name": "",
          "type": "uint256"
        }
      ],
      "payable": false,
      "stateMutability": "view",
      "type": "function"
    },
    {
      "constant": true,
      "inputs": [],
      "name": "name",
      "outputs": [
        {
          "internalType": "string",
          "name": "",
          "type": "string"
        }
      ],
      "payable": false,
      "stateMutability": "pure",
      "type": "function"
    },
    {
      "constant": true,
      "inputs": [],
      "name": "symbol",
      "outputs": [
        {
          "internalType": "string",
          "name": "",
          "type": "string"
        }
      ],
      "payable": false,
      "stateMutability": "pure",
      "type": "function"
    },
    {
      "constant": true,
      "inputs": [
        {
          "internalType": "uint256",
          "name": "_tokenId",
          "type": "uint256"
        }
      ],
      "name": "tokenURI",
      "outputs": [
        {
          "internalType": "string",
          "name": "",
          "type": "string"
        }
      ],
      "payable": false,
      "stateMutability": "view",
      "type": "function"
    },
    {
      "constant": false,
      "inputs": [],
      "name": "kill",
      "outputs": [],
      "payable": false,
      "stateMutability": "nonpayable",
      "type": "function"
    }
  ],
  "bytecode": "0x608060405234801561001057600080fd5b50336000806101000a81548173ffffffffffffffffffffffffffffffffffffffff021916908373ffffffffffffffffffffffffffffffffffffffff16021790555060018060006301ffc9a760e01b7bffffffffffffffffffffffffffffffffffffffffffffffffffffffff1916815260200190815260200160002060006101000a81548160ff02191690831515021790555060018060006380ac58cd60e01b7bffffffffffffffffffffffffffffffffffffffffffffffffffffffff1916815260200190815260200160002060006101000a81548160ff0219169083151502179055506001806000635b5e139f60e01b7bffffffffffffffffffffffffffffffffffffffffffffffffffffffff1916815260200190815260200160002060006101000a81548160ff0219169083151502179055506125d7806101536000396000f3fe60806040526004361061014b5760003560e01c8063700319c5116100b6578063be1c766b1161006f578063be1c766b146108ef578063c87b56dd1461091a578063d36c8c3d146109ce578063d547cfb714610abc578063d85d3d2714610b4c578063e985e9c514610bd25761014b565b8063700319c5146105f257806370a08231146106415780638da5cb5b146106a657806395d89b41146106fd578063a22cb4651461078d578063b88d4fde146107ea5761014b565b806341c0e1b51161010857806341c0e1b5146103b457806342842e0e146103cb57806342966c68146104395780634f6ccce714610474578063634282af146104c35780636352211e146105775761014b565b806301ffc9a71461015057806306fdde03146101c2578063081812fc14610252578063095ea7b3146102cd57806318160ddd1461031b57806323b872dd14610346575b600080fd5b34801561015c57600080fd5b506101a86004803603602081101561017357600080fd5b8101908080357bffffffffffffffffffffffffffffffffffffffffffffffffffffffff19169060200190929190505050610c5b565b604051808215151515815260200191505060405180910390f35b3480156101ce57600080fd5b506101d7610cc3565b6040518080602001828103825283818151815260200191508051906020019080838360005b838110156102175780820151818401526020810190506101fc565b50505050905090810190601f1680156102445780820380516001836020036101000a031916815260200191505b509250505060405180910390f35b34801561025e57600080fd5b5061028b6004803603602081101561027557600080fd5b8101908080359060200190929190505050610d00565b604051808273ffffffffffffffffffffffffffffffffffffffff1673ffffffffffffffffffffffffffffffffffffffff16815260200191505060405180910390f35b610319600480360360408110156102e357600080fd5b81019080803573ffffffffffffffffffffffffffffffffffffffff16906020019092919080359060200190929190505050610d3d565b005b34801561032757600080fd5b50610330610f34565b6040518082815260200191505060405180910390f35b6103b26004803603606081101561035c57600080fd5b81019080803573ffffffffffffffffffffffffffffffffffffffff169060200190929190803573ffffffffffffffffffffffffffffffffffffffff16906020019092919080359060200190929190505050610f41565b005b3480156103c057600080fd5b506103c961111f565b005b610437600480360360608110156103e157600080fd5b81019080803573ffffffffffffffffffffffffffffffffffffffff169060200190929190803573ffffffffffffffffffffffffffffffffffffffff169060200190929190803590602001909291905050506111fe565b005b34801561044557600080fd5b506104726004803603602081101561045c57600080fd5b810190808035906020019092919050505061121e565b005b34801561048057600080fd5b506104ad6004803603602081101561049757600080fd5b8101908080359060200190929190505050611366565b6040518082815260200191505060405180910390f35b3480156104cf57600080fd5b506104fc600480360360208110156104e657600080fd5b810190808035906020019092919050505061139a565b6040518080602001828103825283818151815260200191508051906020019080838360005b8381101561053c578082015181840152602081019050610521565b50505050905090810190601f1680156105695780820380516001836020036101000a031916815260200191505b509250505060405180910390f35b34801561058357600080fd5b506105b06004803603602081101561059a57600080fd5b8101908080359060200190929190505050611459565b604051808273ffffffffffffffffffffffffffffffffffffffff1673ffffffffffffffffffffffffffffffffffffffff16815260200191505060405180910390f35b3480156105fe57600080fd5b5061062b6004803603602081101561061557600080fd5b810190808035906020019092919050505061153e565b6040518082815260200191505060405180910390f35b34801561064d57600080fd5b506106906004803603602081101561066457600080fd5b81019080803573ffffffffffffffffffffffffffffffffffffffff16906020019092919050505061155f565b6040518082815260200191505060405180910390f35b3480156106b257600080fd5b506106bb6115e1565b604051808273ffffffffffffffffffffffffffffffffffffffff1673ffffffffffffffffffffffffffffffffffffffff16815260200191505060405180910390f35b34801561070957600080fd5b50610712611606565b6040518080602001828103825283818151815260200191508051906020019080838360005b83811015610752578082015181840152602081019050610737565b50505050905090810190601f16801561077f5780820380516001836020036101000a031916815260200191505b509250505060405180910390f35b34801561079957600080fd5b506107e8600480360360408110156107b057600080fd5b81019080803573ffffffffffffffffffffffffffffffffffffffff169060200190929190803515159060200190929190505050611643565b005b6108ed6004803603608081101561080057600080fd5b81019080803573ffffffffffffffffffffffffffffffffffffffff169060200190929190803573ffffffffffffffffffffffffffffffffffffffff169060200190929190803590602001909291908035906020019064010000000081111561086757600080fd5b82018360208201111561087957600080fd5b8035906020019184600183028401116401000000008311171561089b57600080fd5b91908080601f016020809104026020016040519081016040528093929190818152602001838380828437600081840152601f19601f820116905080830192505050505050509192919290505050611744565b005b3480156108fb57600080fd5b50610904611990565b6040518082815260200191505060405180910390f35b34801561092657600080fd5b506109536004803603602081101561093d57600080fd5b810190808035906020019092919050505061199d565b6040518080602001828103825283818151815260200191508051906020019080838360005b83811015610993578082015181840152602081019050610978565b50505050905090810190601f1680156109c05780820380516001836020036101000a031916815260200191505b509250505060405180910390f35b3480156109da57600080fd5b50610a07600480360360208110156109f157600080fd5b8101908080359060200190929190505050611ae2565b60405180848152602001806020018373ffffffffffffffffffffffffffffffffffffffff1673ffffffffffffffffffffffffffffffffffffffff168152602001828103825284818151815260200191508051906020019080838360005b83811015610a7f578082015181840152602081019050610a64565b50505050905090810190601f168015610aac5780820380516001836020036101000a031916815260200191505b5094505050505060405180910390f35b348015610ac857600080fd5b50610ad1611c0d565b6040518080602001828103825283818151815260200191508051906020019080838360005b83811015610b11578082015181840152602081019050610af6565b50505050905090810190601f168015610b3e5780820380516001836020036101000a031916815260200191505b509250505060405180910390f35b348015610b5857600080fd5b50610bd060048036036020811015610b6f57600080fd5b8101908080359060200190640100000000811115610b8c57600080fd5b820183602082011115610b9e57600080fd5b80359060200191846001830284011164010000000083111715610bc057600080fd5b9091929391929390505050611c4a565b005b348015610bde57600080fd5b50610c4160048036036040811015610bf557600080fd5b81019080803573ffffffffffffffffffffffffffffffffffffffff169060200190929190803573ffffffffffffffffffffffffffffffffffffffff169060200190929190505050611fd0565b604051808215151515815260200191505060405180910390f35b600060016000837bffffffffffffffffffffffffffffffffffffffffffffffffffffffff19167bffffffffffffffffffffffffffffffffffffffffffffffffffffffff1916815260200190815260200160002060009054906101000a900460ff169050919050565b60606040518060400160405280600981526020017f55314c20544f4b454e0000000000000000000000000000000000000000000000815250905090565b60006004600083815260200190815260200160002060009054906101000a900473ffffffffffffffffffffffffffffffffffffffff169050919050565b6000610d4882611459565b90506000600560008373ffffffffffffffffffffffffffffffffffffffff1673ffffffffffffffffffffffffffffffffffffffff16815260200190815260200160002060003373ffffffffffffffffffffffffffffffffffffffff1673ffffffffffffffffffffffffffffffffffffffff16815260200190815260200160002060009054906101000a900460ff1690503373ffffffffffffffffffffffffffffffffffffffff168273ffffffffffffffffffffffffffffffffffffffff161480610e0f5750805b610e81576040517f08c379a00000000000000000000000000000000000000000000000000000000081526004018080602001828103825260158152602001807f4e6f7420617070726f766564206279206f776e6572000000000000000000000081525060200191505060405180910390fd5b836004600085815260200190815260200160002060006101000a81548173ffffffffffffffffffffffffffffffffffffffff021916908373ffffffffffffffffffffffffffffffffffffffff160217905550828473ffffffffffffffffffffffffffffffffffffffff168373ffffffffffffffffffffffffffffffffffffffff167f8c5be1e5ebec7d5bd14f71427d1e84f3dd0314c0f7b2291e5b200ac8c7c3b92560405160405180910390a450505050565b6000600980549050905090565b816002600083815260200190815260200160002060006101000a81548173ffffffffffffffffffffffffffffffffffffffff021916908373ffffffffffffffffffffffffffffffffffffffff160217905550610fe66001600360008673ffffffffffffffffffffffffffffffffffffffff1673ffffffffffffffffffffffffffffffffffffffff1681526020019081526020016000205461206490919063ffffffff16565b600360008573ffffffffffffffffffffffffffffffffffffffff1673ffffffffffffffffffffffffffffffffffffffff1681526020019081526020016000208190555061107c6001600360008573ffffffffffffffffffffffffffffffffffffffff1673ffffffffffffffffffffffffffffffffffffffff1681526020019081526020016000205461208490919063ffffffff16565b600360008473ffffffffffffffffffffffffffffffffffffffff1673ffffffffffffffffffffffffffffffffffffffff16815260200190815260200160002081905550808273ffffffffffffffffffffffffffffffffffffffff168473ffffffffffffffffffffffffffffffffffffffff167fddf252ad1be2c89b69c2b068fc378daa952ba7f163c4a11628f55a4df523b3ef60405160405180910390a4505050565b6000809054906101000a900473ffffffffffffffffffffffffffffffffffffffff1673ffffffffffffffffffffffffffffffffffffffff163373ffffffffffffffffffffffffffffffffffffffff16146111c4576040517f08c379a00000000000000000000000000000000000000000000000000000000081526004018080602001828103825260228152602001806125316022913960400191505060405180910390fd5b6000809054906101000a900473ffffffffffffffffffffffffffffffffffffffff1673ffffffffffffffffffffffffffffffffffffffff16ff5b61121983838360405180602001604052806000815250611744565b505050565b60006002600083815260200190815260200160002060006101000a81548173ffffffffffffffffffffffffffffffffffffffff021916908373ffffffffffffffffffffffffffffffffffffffff1602179055506112c46001600360003373ffffffffffffffffffffffffffffffffffffffff1673ffffffffffffffffffffffffffffffffffffffff1681526020019081526020016000205461206490919063ffffffff16565b600360003373ffffffffffffffffffffffffffffffffffffffff1673ffffffffffffffffffffffffffffffffffffffff1681526020019081526020016000208190555080600073ffffffffffffffffffffffffffffffffffffffff163373ffffffffffffffffffffffffffffffffffffffff167fddf252ad1be2c89b69c2b068fc378daa952ba7f163c4a11628f55a4df523b3ef60405160405180910390a450565b6000611370610f34565b821061137b57600080fd5b6009828154811061138857fe5b90600052602060002001549050919050565b600881815481106113a757fe5b90600052602060002001600091509050806000018054600181600116156101000203166002900480601f01602080910402602001604051908101604052809291908181526020018280546001816001161561010002031660029004801561144f5780601f106114245761010080835404028352916020019161144f565b820191906000526020600020905b81548152906001019060200180831161143257829003601f168201915b5050505050905081565b6000806002600084815260200190815260200160002060009054906101000a900473ffffffffffffffffffffffffffffffffffffffff169050600073ffffffffffffffffffffffffffffffffffffffff168173ffffffffffffffffffffffffffffffffffffffff161415611535576040517f08c379a00000000000000000000000000000000000000000000000000000000081526004018080602001828103825260108152602001807f546f6b656e20697320696e76616c69640000000000000000000000000000000081525060200191505060405180910390fd5b80915050919050565b6009818154811061154b57fe5b906000526020600020016000915090505481565b60008073ffffffffffffffffffffffffffffffffffffffff168273ffffffffffffffffffffffffffffffffffffffff16141561159a57600080fd5b600360008373ffffffffffffffffffffffffffffffffffffffff1673ffffffffffffffffffffffffffffffffffffffff168152602001908152602001600020549050919050565b6000809054906101000a900473ffffffffffffffffffffffffffffffffffffffff1681565b60606040518060400160405280600381526020017f55314c0000000000000000000000000000000000000000000000000000000000815250905090565b80600560003373ffffffffffffffffffffffffffffffffffffffff1673ffffffffffffffffffffffffffffffffffffffff16815260200190815260200160002060008473ffffffffffffffffffffffffffffffffffffffff1673ffffffffffffffffffffffffffffffffffffffff16815260200190815260200160002060006101000a81548160ff0219169083151502179055508173ffffffffffffffffffffffffffffffffffffffff163373ffffffffffffffffffffffffffffffffffffffff167f17307eab39ab6107e8899845ad3d59bd9653f200f220920489ca2b5937696c3183604051808215151515815260200191505060405180910390a35050565b61174f848484610f41565b61176e8373ffffffffffffffffffffffffffffffffffffffff166120a3565b1561198a5760008373ffffffffffffffffffffffffffffffffffffffff1663150b7a02338786866040518563ffffffff1660e01b8152600401808573ffffffffffffffffffffffffffffffffffffffff1673ffffffffffffffffffffffffffffffffffffffff1681526020018473ffffffffffffffffffffffffffffffffffffffff1673ffffffffffffffffffffffffffffffffffffffff16815260200183815260200180602001828103825283818151815260200191508051906020019080838360005b8381101561184e578082015181840152602081019050611833565b50505050905090810190601f16801561187b5780820380516001836020036101000a031916815260200191505b5095505050505050602060405180830381600087803b15801561189d57600080fd5b505af11580156118b1573d6000803e3d6000fd5b505050506040513d60208110156118c757600080fd5b810190808051906020019092919050505090506040518080612553602f9139602f01905060405180910390207bffffffffffffffffffffffffffffffffffffffffffffffffffffffff1916817bffffffffffffffffffffffffffffffffffffffffffffffffffffffff191614611988576040517f08c379a00000000000000000000000000000000000000000000000000000000081526004018080602001828103825260218152602001806125826021913960400191505060405180910390fd5b505b50505050565b6000600780549050905090565b6060816119bc600a600085815260200190815260200160002054611366565b14611a2f576040517f08c379a00000000000000000000000000000000000000000000000000000000081526004018080602001828103825260148152602001807f54686520746f6b656e20697320696e76616c696400000000000000000000000081525060200191505060405180910390fd5b600660008381526020019081526020016000208054600181600116156101000203166002900480601f016020809104026020016040519081016040528092919081815260200182805460018160011615610100020316600290048015611ad65780601f10611aab57610100808354040283529160200191611ad6565b820191906000526020600020905b815481529060010190602001808311611ab957829003601f168201915b50505050509050919050565b60006060600060078481548110611af557fe5b90600052602060002090600302016000015460078581548110611b1457fe5b906000526020600020906003020160010160078681548110611b3257fe5b906000526020600020906003020160020160009054906101000a900473ffffffffffffffffffffffffffffffffffffffff16818054600181600116156101000203166002900480601f016020809104026020016040519081016040528092919081815260200182805460018160011615610100020316600290048015611bf95780601f10611bce57610100808354040283529160200191611bf9565b820191906000526020600020905b815481529060010190602001808311611bdc57829003601f168201915b505050505091509250925092509193909250565b60606040518060400160405280601d81526020017f68747470733a2f2f676174657761792e697066732e696f2f697066732f000000815250905090565b611c526123f8565b604051806020016040528084848080601f016020809104026020016040519081016040528093929190818152602001838380828437600081840152601f19601f820116905080830192505050505050508152509050600060016008839080600181540180825580915050906001820390600052602060002001600090919290919091506000820151816000019080519060200190611cf192919061240b565b505050039050336002600083815260200190815260200160002060006101000a81548173ffffffffffffffffffffffffffffffffffffffff021916908373ffffffffffffffffffffffffffffffffffffffff160217905550611d9c6001600360003373ffffffffffffffffffffffffffffffffffffffff1673ffffffffffffffffffffffffffffffffffffffff1681526020019081526020016000205461208490919063ffffffff16565b600360003373ffffffffffffffffffffffffffffffffffffffff1673ffffffffffffffffffffffffffffffffffffffff168152602001908152602001600020819055506007604051806060016040528083815260200186868080601f016020809104026020016040519081016040528093929190818152602001838380828437600081840152601f19601f8201169050808301925050505050505081526020013373ffffffffffffffffffffffffffffffffffffffff1681525090806001815401808255809150509060018203906000526020600020906003020160009091929091909150600082015181600001556020820151816001019080519060200190611ea792919061240b565b5060408201518160020160006101000a81548173ffffffffffffffffffffffffffffffffffffffff021916908373ffffffffffffffffffffffffffffffffffffffff160217905550505050611f47611efd611c0d565b85858080601f016020809104026020016040519081016040528093929190818152602001838380828437600081840152601f19601f820116905080830192505050505050506120ee565b600660008381526020019081526020016000209080519060200190611f6d92919061248b565b50803373ffffffffffffffffffffffffffffffffffffffff16600073ffffffffffffffffffffffffffffffffffffffff167fddf252ad1be2c89b69c2b068fc378daa952ba7f163c4a11628f55a4df523b3ef60405160405180910390a450505050565b6000600560008473ffffffffffffffffffffffffffffffffffffffff1673ffffffffffffffffffffffffffffffffffffffff16815260200190815260200160002060008373ffffffffffffffffffffffffffffffffffffffff1673ffffffffffffffffffffffffffffffffffffffff16815260200190815260200160002060009054906101000a900460ff16905092915050565b60008282111561207357600080fd5b600082840390508091505092915050565b60008082840190508381101561209957600080fd5b8091505092915050565b60008060007fc5d2460186f7233c927e7db2dcc703c0e500b653ca82273b7bfad8045d85a47060001b9050833f91506000801b82141580156120e55750808214155b92505050919050565b606061212a8383604051806020016040528060008152506040518060200160405280600081525060405180602001604052806000815250612132565b905092915050565b6060808690506060869050606086905060608690506060869050606081518351855187518951010101016040519080825280601f01601f19166020018201604052801561218e5781602001600182028038833980820191505090505b5090506060819050600080905060008090505b885181101561220f578881815181106121b657fe5b602001015160f81c60f81b8383806001019450815181106121d357fe5b60200101907effffffffffffffffffffffffffffffffffffffffffffffffffffffffffffff1916908160001a90535080806001019150506121a1565b5060008090505b87518110156122845787818151811061222b57fe5b602001015160f81c60f81b83838060010194508151811061224857fe5b60200101907effffffffffffffffffffffffffffffffffffffffffffffffffffffffffffff1916908160001a9053508080600101915050612216565b5060008090505b86518110156122f9578681815181106122a057fe5b602001015160f81c60f81b8383806001019450815181106122bd57fe5b60200101907effffffffffffffffffffffffffffffffffffffffffffffffffffffffffffff1916908160001a905350808060010191505061228b565b5060008090505b855181101561236e5785818151811061231557fe5b602001015160f81c60f81b83838060010194508151811061233257fe5b60200101907effffffffffffffffffffffffffffffffffffffffffffffffffffffffffffff1916908160001a9053508080600101915050612300565b5060008090505b84518110156123e35784818151811061238a57fe5b602001015160f81c60f81b8383806001019450815181106123a757fe5b60200101907effffffffffffffffffffffffffffffffffffffffffffffffffffffffffffff1916908160001a9053508080600101915050612375565b50819850505050505050505095945050505050565b6040518060200160405280606081525090565b828054600181600116156101000203166002900490600052602060002090601f016020900481019282601f1061244c57805160ff191683800117855561247a565b8280016001018555821561247a579182015b8281111561247957825182559160200191906001019061245e565b5b509050612487919061250b565b5090565b828054600181600116156101000203166002900490600052602060002090601f016020900481019282601f106124cc57805160ff19168380011785556124fa565b828001600101855582156124fa579182015b828111156124f95782518255916020019190600101906124de565b5b509050612507919061250b565b5090565b61252d91905b80821115612529576000816000905550600101612511565b5090565b9056fe4f6e6c79206f776e65722063616e2063616c6c20746869732066756e6374696f6e2e6f6e455243373231526563656976656428616464726573732c616464726573732c75696e743235362c62797465732972656365697074206f6620746f6b656e206973204e4f5420636f6d706c65746564a265627a7a72315820d38e0c16bb5e4b2f0a03a777c4d107dac73ea332d1a9a87d34431c48d509438b64736f6c63430005100032",
  "source": "pragma solidity ^0.5.0;\r\n\r\nimport \"./ERC721.sol\";\r\nimport \"./ERC165.sol\";\r\nimport \"./SafeMath.sol\";\r\nimport \"./Address.sol\";\r\nimport \"./Strings.sol\";\r\n\r\ncontract DeedIPFSToken is ERC721, ERC165 {\r\n    using SafeMath for uint256;\r\n    using Address for address;\r\n\r\n    address payable public owner;\r\n    mapping(bytes4 => bool) supportedInterfaces;\r\n\r\n    mapping(uint256 => address) tokenOwners;\r\n    mapping(address => uint256) balances;\r\n    mapping(uint256 => address) allowance;\r\n    mapping(address => mapping(address => bool)) operators;\r\n\r\n    // NFT   . \r\n    mapping(uint256 => string) tokenURIs;\r\n\r\n    struct asset {\r\n        string ipfsHash;\r\n    }\r\n     //struct \r\n    struct allNFT{\r\n        uint256 tokenId; // \r\n        string ipfsHash; //    \r\n        address tokenOwner; //    \r\n    }\r\n\r\n    //struct =>  \r\n    allNFT[] allNFTs;\r\n    asset[] public allTokens;//   \r\n\r\n\r\n    //for enumeration\r\n    uint256[] public allValidTokenIds; //same as allTokens but does't have invalid tokens\r\n    mapping(uint256 => uint256) private allValidTokenIndex;\r\n\r\n    modifier onlyOwner() {\r\n        require(msg.sender == owner, \"Only owner can call this function.\");\r\n        _;\r\n    }\r\n\r\n    constructor() public {\r\n        owner = msg.sender;\r\n        supportedInterfaces[0x01ffc9a7] = true; //ERC165\r\n        supportedInterfaces[0x80ac58cd] = true; //ERC721\r\n        supportedInterfaces[0x5b5e139f] = true; //ERC721Metadata\r\n    }\r\n\r\n    function supportsInterface(bytes4 interfaceID)\r\n        external\r\n        view\r\n        returns (bool)\r\n    {\r\n        return supportedInterfaces[interfaceID];\r\n    }\r\n\r\n    function balanceOf(address _owner) external view returns (uint256) {\r\n        require(_owner != address(0));\r\n        return balances[_owner];\r\n    }\r\n\r\n    function ownerOf(uint256 _tokenId) public view returns (address) {\r\n        address addr_owner = tokenOwners[_tokenId];\r\n        require(addr_owner != address(0), \"Token is invalid\");\r\n        return addr_owner;\r\n    }\r\n\r\n    //////////////////////////////////////////////////////////////////\r\n    function transferFrom( address _from, address _to, uint256 _tokenId) public payable {\r\n        // \r\n        //*address addr_owner = ownerOf(_tokenId);\r\n        //  _from       .\r\n        //*require(addr_owner == _from, \"_from is NOT the owner of the token\");\r\n        //  _to 0(null)  .\r\n        //*require(_to != address(0), \"Transfer _to address 0x0\");\r\n        //  allowance address  \r\n        //*address addr_allowed = allowance[_tokenId];\r\n        //             \r\n        //*bool isOp = operators[addr_owner][msg.sender];\r\n        //msg.sender  ,  allowance  ,   true    .\r\n        //* require(\r\n        //     addr_owner == msg.sender || addr_allowed == msg.sender || isOp,\r\n        //     \"msg.sender does not have transferable token\"\r\n        // );\r\n        //* require(\r\n        //      addr_allowed == msg.sender ,\r\n        //     \"msg.sender does not have transferable token\"\r\n        // );\r\n        //transfer : change the owner of the token\r\n          //  _to  \r\n        tokenOwners[_tokenId] = _to;\r\n        //safemath  balance \r\n        balances[_from] = balances[_from].sub(1);\r\n        //safemath  balance \r\n        balances[_to] = balances[_to].add(1);\r\n        //reset approved address\r\n        //erc721 ,  allowance    .\r\n        //* if (allowance[_tokenId] != address(0)) {\r\n        //     delete allowance[_tokenId];\r\n        // }\r\n        emit Transfer(_from, _to, _tokenId);\r\n    }\r\n    //////////////////////////////////////////////////////////////////\r\n\r\n\r\n\r\n    //     .\r\n    // function transferAuction (address _from, address _to, uint256 _tokenId) public payable {\r\n    //     if(block.timestamp <= start + daysAfter * 1days){\r\n\r\n    //     }\r\n    // }\r\n    /////////////////////////////////////////\r\n\r\n    function safeTransferFrom(\r\n        address _from,\r\n        address _to,\r\n        uint256 _tokenId,\r\n        bytes memory data\r\n    ) public payable {\r\n        transferFrom(_from, _to, _tokenId);\r\n\r\n        //check if _to is CA\r\n        if (_to.isContract()) {\r\n            bytes4 result = ERC721TokenReceiver(_to).onERC721Received(\r\n                msg.sender,\r\n                _from,\r\n                _tokenId,\r\n                data\r\n            );\r\n\r\n            require(\r\n                result ==\r\n                    bytes4(\r\n                        keccak256(\r\n                            \"onERC721Received(address,address,uint256,bytes)\"\r\n                        )\r\n                    ),\r\n                \"receipt of token is NOT completed\"\r\n            );\r\n        }\r\n    }\r\n\r\n    function safeTransferFrom(\r\n        address _from,\r\n        address _to,\r\n        uint256 _tokenId\r\n    ) public payable {\r\n        safeTransferFrom(_from, _to, _tokenId, \"\");\r\n    }\r\n\r\n    function approve(address _approved, uint256 _tokenId) external payable {\r\n        address addr_owner = ownerOf(_tokenId);\r\n        bool isOp = operators[addr_owner][msg.sender];\r\n        require(addr_owner == msg.sender || isOp, \"Not approved by owner\");\r\n        allowance[_tokenId] = _approved;\r\n        emit Approval(addr_owner, _approved, _tokenId);\r\n    }\r\n\r\n    function setApprovalForAll(address _operator, bool _approved) external {\r\n        operators[msg.sender][_operator] = _approved;\r\n        emit ApprovalForAll(msg.sender, _operator, _approved);\r\n    }\r\n\r\n    function getApproved(uint256 _tokenId) external view returns (address) {\r\n        return allowance[_tokenId];\r\n    }\r\n\r\n    function isApprovedForAll(address _owner, address _operator)\r\n        external\r\n        view\r\n        returns (bool)\r\n    {\r\n        return operators[_owner][_operator];\r\n    }\r\n\r\n    //non-ERC721 standard\r\n    //\r\n    //\r\n        //\r\n    // function mint(string calldata ipfsHash) external {\r\n    //     asset memory newAsset = asset(ipfsHash);\r\n    //     uint256 tokenId = allTokens.push(newAsset) - 1;\r\n    //     //tokenid starts from 0, index of assets array\r\n    //     tokenOwners[tokenId] = msg.sender;\r\n    //     balances[msg.sender] = balances[msg.sender].add(1);\r\n    //     //for enumeration\r\n    //     allValidTokenIndex[tokenId] = allValidTokenIds.length;\r\n    //     //index starts from 0\r\n    //     allValidTokenIds.push(tokenId);\r\n    //     // MyNFT[tokenURIs[tokenId]] = msg.sender;\r\n    //     //mapping(uint256 => mapping(string => address)) MyNFT;\r\n    //     //   //  \r\n    //     allNFTs.push(allNFT(tokenId, ipfsHash, msg.sender ));\r\n    //     //Token Metadata\r\n    //     //tokenURIs[tokenId] = Strings.strConcat(baseTokenURI(), \"QmdDW36bvr2W6ua4FxnT8bKysXhYEUo7QbLTbkGW4Foxr8\");\r\n    //     tokenURIs[tokenId] = Strings.strConcat(baseTokenURI(), ipfsHash);\r\n    //     // allAddresses.push(tokenURIs[0]);\r\n    //     // allAddresses.push(msg.sender); // allAddresses nft   \r\n    //     // emit Transfer(address(0), msg.sender, tokenId);\r\n    //     emit Transfer(address(0), msg.sender, tokenId);\r\n    // }\r\n\r\n\r\n            // \r\n       function mint(string calldata ipfsHash) external {\r\n        asset memory newAsset = asset(ipfsHash);\r\n        uint256 tokenId = allTokens.push(newAsset) - 1;\r\n        tokenOwners[tokenId] = msg.sender;\r\n        balances[msg.sender] = balances[msg.sender].add(1);\r\n        allNFTs.push(allNFT(tokenId, ipfsHash, msg.sender ));\r\n        tokenURIs[tokenId] = Strings.strConcat(baseTokenURI(), ipfsHash);\r\n        emit Transfer(address(0), msg.sender, tokenId);\r\n    }\r\n\r\n\r\n\r\n  \r\n\r\n    // NFT     \r\n    function getAllNFTs(uint _number) public view returns (uint256, string memory, address){\r\n        return (allNFTs[_number].tokenId, allNFTs[_number].ipfsHash, allNFTs[_number].tokenOwner);\r\n    }\r\n\r\n    //NFT \r\n    function getLength() public view returns (uint256) {\r\n        return allNFTs.length;\r\n    }\r\n    \r\n    ///////// NFT   --////////////////\r\n    // function burn(uint256 _tokenId) external {\r\n    //     address addr_owner = ownerOf(_tokenId);\r\n    //     require(\r\n    //         addr_owner == msg.sender,\r\n    //         \"msg.sender is NOT the owner of the token\"\r\n    //     );\r\n    //     //reset approved address\r\n    //     if (allowance[_tokenId] != address(0)) {\r\n    //         delete allowance[_tokenId];\r\n    //         // tokenId => 0\r\n    //     }\r\n    //     //transfer : change the owner of the token, but address(0)\r\n    //     tokenOwners[_tokenId] = address(0);\r\n    //     balances[msg.sender] = balances[msg.sender].sub(1);\r\n    //     //for enumeration\r\n    //     removeInvalidToken(_tokenId);\r\n    //     //clear metadata if exists\r\n    //     if (bytes(tokenURIs[_tokenId]).length != 0) {\r\n    //         delete tokenURIs[_tokenId];\r\n    //     }\r\n    //     emit Transfer(addr_owner, address(0), _tokenId);\r\n    // }\r\n    /////////////////////////////////////////////////////////////\r\n    ///////// NFT   --////////////////\r\n    function burn(uint256 _tokenId) external {\r\n        tokenOwners[_tokenId] = address(0);\r\n        balances[msg.sender] = balances[msg.sender].sub(1);\r\n        emit Transfer(msg.sender, address(0), _tokenId);\r\n    }\r\n    /////////////////////////////////////////////////////////////\r\n\r\n\r\n\r\n    function removeInvalidToken(uint256 tokenIdToRemove) private {\r\n        uint256 lastIndex = allValidTokenIds.length.sub(1);\r\n        uint256 removeIndex = allValidTokenIndex[tokenIdToRemove];\r\n\r\n        uint256 lastTokenId = allValidTokenIds[lastIndex];\r\n\r\n        //swap\r\n        allValidTokenIds[removeIndex] = lastTokenId;\r\n        allValidTokenIndex[lastTokenId] = removeIndex;\r\n\r\n        //delete\r\n        //Arrays have a length member to hold their number of elements.\r\n        //Dynamic arrays can be resized in storage (not in memory) by changing the .length member.\r\n        allValidTokenIds.length = allValidTokenIds.length.sub(1);\r\n        //allValidTokenIndex is private so can't access invalid token by index programmatically\r\n        allValidTokenIndex[tokenIdToRemove] = 0;\r\n    }\r\n\r\n    function baseTokenURI() public pure returns (string memory) {\r\n        return \"https://gateway.ipfs.io/ipfs/\";\r\n    }\r\n\r\n    //ERC721Enumerable\r\n    function totalSupply() public view returns (uint256) {\r\n        return allValidTokenIds.length;\r\n    }\r\n\r\n    //ERC721Enumerable\r\n    function tokenByIndex(uint256 index) public view returns (uint256) {\r\n        require(index < totalSupply());\r\n        return allValidTokenIds[index];\r\n    }\r\n\r\n    //ERC721Metadata\r\n    function name() external pure returns (string memory) {\r\n        return \"U1L TOKEN\";\r\n    }\r\n\r\n    //ERC721Metadata\r\n    function symbol() external pure returns (string memory) {\r\n        return \"U1L\";\r\n    }\r\n\r\n    //ERC721Metadata\r\n    function tokenURI(uint256 _tokenId) external view returns (string memory) {\r\n        require(\r\n            tokenByIndex(allValidTokenIndex[_tokenId]) == _tokenId,\r\n            \"The token is invalid\"\r\n        );\r\n        return tokenURIs[_tokenId];\r\n    }\r\n\r\n    function kill() external onlyOwner {\r\n        selfdestruct(owner);\r\n    }\r\n}\r\n\r\ncontract ERC721TokenReceiver {\r\n    function onERC721Received(\r\n        address _operator,\r\n        address _from,\r\n        uint256 _tokenId,\r\n        bytes memory _data\r\n    ) public returns (bytes4);\r\n}",
  "sourcePath": "/home/byeonggoon/work/DAPP/FinalTeam/contracts/DeedIPFSToken.sol",
  "compiler": {
    "name": "solc",
    "version": "0.5.16+commit.9c3226ce.Emscripten.clang"
  },
  "schemaVersion": "3.4.2",
  "updatedAt": "2021-08-30T14:27:58.695Z",
  "networkType": "ethereum",
  "devdoc": {
    "methods": {}
  },
  "userdoc": {
    "methods": {
      "burn(uint256)": {
        "notice": "////////////////////////////////////////////////////////// ////// NFT   --////////////////"
      },
      "safeTransferFrom(address,address,uint256,bytes)": {
        "notice": "//////////////////////////////////////"
      },
      "transferFrom(address,address,uint256)": {
        "notice": "///////////////////////////////////////////////////////////////"
      }
    }
  }
}