{
  "contractName": "DeedIPFSToken",
  "abi": [
    {
      "inputs": [],
      "payable": false,
      "stateMutability": "nonpayable",
      "type": "constructor"
    },
    {
      "anonymous": false,
      "inputs": [
        {
          "indexed": true,
          "internalType": "address",
          "name": "_owner",
          "type": "address"
        },
        {
          "indexed": true,
          "internalType": "address",
          "name": "_approved",
          "type": "address"
        },
        {
          "indexed": true,
          "internalType": "uint256",
          "name": "_tokenId",
          "type": "uint256"
        }
      ],
      "name": "Approval",
      "type": "event"
    },
    {
      "anonymous": false,
      "inputs": [
        {
          "indexed": true,
          "internalType": "address",
          "name": "_owner",
          "type": "address"
        },
        {
          "indexed": true,
          "internalType": "address",
          "name": "_operator",
          "type": "address"
        },
        {
          "indexed": false,
          "internalType": "bool",
          "name": "_approved",
          "type": "bool"
        }
      ],
      "name": "ApprovalForAll",
      "type": "event"
    },
    {
      "anonymous": false,
      "inputs": [
        {
          "indexed": true,
          "internalType": "address",
          "name": "_from",
          "type": "address"
        },
        {
          "indexed": true,
          "internalType": "address",
          "name": "_to",
          "type": "address"
        },
        {
          "indexed": true,
          "internalType": "uint256",
          "name": "_tokenId",
          "type": "uint256"
        }
      ],
      "name": "Transfer",
      "type": "event"
    },
    {
      "payable": true,
      "stateMutability": "payable",
      "type": "fallback"
    },
    {
      "constant": true,
      "inputs": [
        {
          "internalType": "uint256",
          "name": "",
          "type": "uint256"
        }
      ],
      "name": "allTokens",
      "outputs": [
        {
          "internalType": "string",
          "name": "ipfsHash",
          "type": "string"
        }
      ],
      "payable": false,
      "stateMutability": "view",
      "type": "function"
    },
    {
      "constant": true,
      "inputs": [
        {
          "internalType": "uint256",
          "name": "",
          "type": "uint256"
        }
      ],
      "name": "allValidTokenIds",
      "outputs": [
        {
          "internalType": "uint256",
          "name": "",
          "type": "uint256"
        }
      ],
      "payable": false,
      "stateMutability": "view",
      "type": "function"
    },
    {
      "constant": true,
      "inputs": [],
      "name": "owner",
      "outputs": [
        {
          "internalType": "address payable",
          "name": "",
          "type": "address"
        }
      ],
      "payable": false,
      "stateMutability": "view",
      "type": "function"
    },
    {
      "constant": true,
      "inputs": [
        {
          "internalType": "bytes4",
          "name": "interfaceID",
          "type": "bytes4"
        }
      ],
      "name": "supportsInterface",
      "outputs": [
        {
          "internalType": "bool",
          "name": "",
          "type": "bool"
        }
      ],
      "payable": false,
      "stateMutability": "view",
      "type": "function"
    },
    {
      "constant": true,
      "inputs": [
        {
          "internalType": "address",
          "name": "_owner",
          "type": "address"
        }
      ],
      "name": "balanceOf",
      "outputs": [
        {
          "internalType": "uint256",
          "name": "",
          "type": "uint256"
        }
      ],
      "payable": false,
      "stateMutability": "view",
      "type": "function"
    },
    {
      "constant": true,
      "inputs": [
        {
          "internalType": "uint256",
          "name": "_tokenId",
          "type": "uint256"
        }
      ],
      "name": "ownerOf",
      "outputs": [
        {
          "internalType": "address",
          "name": "",
          "type": "address"
        }
      ],
      "payable": false,
      "stateMutability": "view",
      "type": "function"
    },
    {
      "constant": false,
      "inputs": [
        {
          "internalType": "address",
          "name": "_from",
          "type": "address"
        },
        {
          "internalType": "address",
          "name": "_to",
          "type": "address"
        },
        {
          "internalType": "uint256",
          "name": "_tokenId",
          "type": "uint256"
        }
      ],
      "name": "transferFrom",
      "outputs": [],
      "payable": true,
      "stateMutability": "payable",
      "type": "function"
    },
    {
      "constant": false,
      "inputs": [
        {
          "internalType": "address",
          "name": "_from",
          "type": "address"
        },
        {
          "internalType": "address",
          "name": "_to",
          "type": "address"
        },
        {
          "internalType": "uint256",
          "name": "_tokenId",
          "type": "uint256"
        }
      ],
      "name": "safeTransferFrom",
      "outputs": [],
      "payable": true,
      "stateMutability": "payable",
      "type": "function"
    },
    {
      "constant": false,
      "inputs": [
        {
          "internalType": "address",
          "name": "_from",
          "type": "address"
        },
        {
          "internalType": "address",
          "name": "_to",
          "type": "address"
        },
        {
          "internalType": "uint256",
          "name": "_tokenId",
          "type": "uint256"
        },
        {
          "internalType": "bytes",
          "name": "data",
          "type": "bytes"
        }
      ],
      "name": "safeTransferFrom",
      "outputs": [],
      "payable": true,
      "stateMutability": "payable",
      "type": "function"
    },
    {
      "constant": false,
      "inputs": [
        {
          "internalType": "address",
          "name": "_approved",
          "type": "address"
        },
        {
          "internalType": "uint256",
          "name": "_tokenId",
          "type": "uint256"
        }
      ],
      "name": "approve",
      "outputs": [],
      "payable": true,
      "stateMutability": "payable",
      "type": "function"
    },
    {
      "constant": false,
      "inputs": [
        {
          "internalType": "address",
          "name": "_operator",
          "type": "address"
        },
        {
          "internalType": "bool",
          "name": "_approved",
          "type": "bool"
        }
      ],
      "name": "setApprovalForAll",
      "outputs": [],
      "payable": false,
      "stateMutability": "nonpayable",
      "type": "function"
    },
    {
      "constant": true,
      "inputs": [
        {
          "internalType": "uint256",
          "name": "_tokenId",
          "type": "uint256"
        }
      ],
      "name": "getApproved",
      "outputs": [
        {
          "internalType": "address",
          "name": "",
          "type": "address"
        }
      ],
      "payable": false,
      "stateMutability": "view",
      "type": "function"
    },
    {
      "constant": true,
      "inputs": [
        {
          "internalType": "address",
          "name": "_owner",
          "type": "address"
        },
        {
          "internalType": "address",
          "name": "_operator",
          "type": "address"
        }
      ],
      "name": "isApprovedForAll",
      "outputs": [
        {
          "internalType": "bool",
          "name": "",
          "type": "bool"
        }
      ],
      "payable": false,
      "stateMutability": "view",
      "type": "function"
    },
    {
      "constant": false,
      "inputs": [
        {
          "internalType": "string",
          "name": "ipfsHash",
          "type": "string"
        }
      ],
      "name": "mint",
      "outputs": [],
      "payable": false,
      "stateMutability": "nonpayable",
      "type": "function"
    },
    {
      "constant": true,
      "inputs": [],
      "name": "getLength",
      "outputs": [
        {
          "internalType": "uint256",
          "name": "",
          "type": "uint256"
        }
      ],
      "payable": false,
      "stateMutability": "view",
      "type": "function"
    },
    {
      "constant": true,
      "inputs": [
        {
          "internalType": "uint256",
          "name": "_number",
          "type": "uint256"
        }
      ],
      "name": "getAllNFTs",
      "outputs": [
        {
          "internalType": "uint256",
          "name": "",
          "type": "uint256"
        },
        {
          "internalType": "string",
          "name": "",
          "type": "string"
        },
        {
          "internalType": "address",
          "name": "",
          "type": "address"
        }
      ],
      "payable": false,
      "stateMutability": "view",
      "type": "function"
    },
    {
      "constant": false,
      "inputs": [
        {
          "internalType": "uint256",
          "name": "_tokenId",
          "type": "uint256"
        }
      ],
      "name": "burn",
      "outputs": [],
      "payable": false,
      "stateMutability": "nonpayable",
      "type": "function"
    },
    {
      "constant": true,
      "inputs": [],
      "name": "baseTokenURI",
      "outputs": [
        {
          "internalType": "string",
          "name": "",
          "type": "string"
        }
      ],
      "payable": false,
      "stateMutability": "pure",
      "type": "function"
    },
    {
      "constant": true,
      "inputs": [],
      "name": "totalSupply",
      "outputs": [
        {
          "internalType": "uint256",
          "name": "",
          "type": "uint256"
        }
      ],
      "payable": false,
      "stateMutability": "view",
      "type": "function"
    },
    {
      "constant": true,
      "inputs": [
        {
          "internalType": "uint256",
          "name": "index",
          "type": "uint256"
        }
      ],
      "name": "tokenByIndex",
      "outputs": [
        {
          "internalType": "uint256",
          "name": "",
          "type": "uint256"
        }
      ],
      "payable": false,
      "stateMutability": "view",
      "type": "function"
    },
    {
      "constant": true,
      "inputs": [],
      "name": "name",
      "outputs": [
        {
          "internalType": "string",
          "name": "",
          "type": "string"
        }
      ],
      "payable": false,
      "stateMutability": "pure",
      "type": "function"
    },
    {
      "constant": true,
      "inputs": [],
      "name": "symbol",
      "outputs": [
        {
          "internalType": "string",
          "name": "",
          "type": "string"
        }
      ],
      "payable": false,
      "stateMutability": "pure",
      "type": "function"
    },
    {
      "constant": true,
      "inputs": [
        {
          "internalType": "uint256",
          "name": "_tokenId",
          "type": "uint256"
        }
      ],
      "name": "tokenURI",
      "outputs": [
        {
          "internalType": "string",
          "name": "",
          "type": "string"
        }
      ],
      "payable": false,
      "stateMutability": "view",
      "type": "function"
    },
    {
      "constant": false,
      "inputs": [],
      "name": "kill",
      "outputs": [],
      "payable": false,
      "stateMutability": "nonpayable",
      "type": "function"
    }
  ],
  "bytecode": "0x608060405234801561001057600080fd5b50336000806101000a81548173ffffffffffffffffffffffffffffffffffffffff021916908373ffffffffffffffffffffffffffffffffffffffff16021790555060018060006301ffc9a760e01b7bffffffffffffffffffffffffffffffffffffffffffffffffffffffff1916815260200190815260200160002060006101000a81548160ff02191690831515021790555060018060006380ac58cd60e01b7bffffffffffffffffffffffffffffffffffffffffffffffffffffffff1916815260200190815260200160002060006101000a81548160ff0219169083151502179055506001806000635b5e139f60e01b7bffffffffffffffffffffffffffffffffffffffffffffffffffffffff1916815260200190815260200160002060006101000a81548160ff021916908315150217905550612cb7806101536000396000f3fe60806040526004361061014b5760003560e01c8063700319c5116100b6578063be1c766b1161006f578063be1c766b146108ec578063c87b56dd14610917578063d36c8c3d146109cb578063d547cfb714610ab9578063d85d3d2714610b49578063e985e9c514610bcf5761014b565b8063700319c5146105ef57806370a082311461063e5780638da5cb5b146106a357806395d89b41146106fa578063a22cb4651461078a578063b88d4fde146107e75761014b565b806341c0e1b51161010857806341c0e1b5146103b157806342842e0e146103c857806342966c68146104365780634f6ccce714610471578063634282af146104c05780636352211e146105745761014b565b806301ffc9a71461014d57806306fdde03146101bf578063081812fc1461024f578063095ea7b3146102ca57806318160ddd1461031857806323b872dd14610343575b005b34801561015957600080fd5b506101a56004803603602081101561017057600080fd5b8101908080357bffffffffffffffffffffffffffffffffffffffffffffffffffffffff19169060200190929190505050610c58565b604051808215151515815260200191505060405180910390f35b3480156101cb57600080fd5b506101d4610cc0565b6040518080602001828103825283818151815260200191508051906020019080838360005b838110156102145780820151818401526020810190506101f9565b50505050905090810190601f1680156102415780820380516001836020036101000a031916815260200191505b509250505060405180910390f35b34801561025b57600080fd5b506102886004803603602081101561027257600080fd5b8101908080359060200190929190505050610cfd565b604051808273ffffffffffffffffffffffffffffffffffffffff1673ffffffffffffffffffffffffffffffffffffffff16815260200191505060405180910390f35b610316600480360360408110156102e057600080fd5b81019080803573ffffffffffffffffffffffffffffffffffffffff16906020019092919080359060200190929190505050610d3a565b005b34801561032457600080fd5b5061032d610f31565b6040518082815260200191505060405180910390f35b6103af6004803603606081101561035957600080fd5b81019080803573ffffffffffffffffffffffffffffffffffffffff169060200190929190803573ffffffffffffffffffffffffffffffffffffffff16906020019092919080359060200190929190505050610f3e565b005b3480156103bd57600080fd5b506103c6611479565b005b610434600480360360608110156103de57600080fd5b81019080803573ffffffffffffffffffffffffffffffffffffffff169060200190929190803573ffffffffffffffffffffffffffffffffffffffff16906020019092919080359060200190929190505050611558565b005b34801561044257600080fd5b5061046f6004803603602081101561045957600080fd5b8101908080359060200190929190505050611578565b005b34801561047d57600080fd5b506104aa6004803603602081101561049457600080fd5b8101908080359060200190929190505050611848565b6040518082815260200191505060405180910390f35b3480156104cc57600080fd5b506104f9600480360360208110156104e357600080fd5b810190808035906020019092919050505061187c565b6040518080602001828103825283818151815260200191508051906020019080838360005b8381101561053957808201518184015260208101905061051e565b50505050905090810190601f1680156105665780820380516001836020036101000a031916815260200191505b509250505060405180910390f35b34801561058057600080fd5b506105ad6004803603602081101561059757600080fd5b810190808035906020019092919050505061193b565b604051808273ffffffffffffffffffffffffffffffffffffffff1673ffffffffffffffffffffffffffffffffffffffff16815260200191505060405180910390f35b3480156105fb57600080fd5b506106286004803603602081101561061257600080fd5b8101908080359060200190929190505050611a20565b6040518082815260200191505060405180910390f35b34801561064a57600080fd5b5061068d6004803603602081101561066157600080fd5b81019080803573ffffffffffffffffffffffffffffffffffffffff169060200190929190505050611a41565b6040518082815260200191505060405180910390f35b3480156106af57600080fd5b506106b8611ac3565b604051808273ffffffffffffffffffffffffffffffffffffffff1673ffffffffffffffffffffffffffffffffffffffff16815260200191505060405180910390f35b34801561070657600080fd5b5061070f611ae8565b6040518080602001828103825283818151815260200191508051906020019080838360005b8381101561074f578082015181840152602081019050610734565b50505050905090810190601f16801561077c5780820380516001836020036101000a031916815260200191505b509250505060405180910390f35b34801561079657600080fd5b506107e5600480360360408110156107ad57600080fd5b81019080803573ffffffffffffffffffffffffffffffffffffffff169060200190929190803515159060200190929190505050611b25565b005b6108ea600480360360808110156107fd57600080fd5b81019080803573ffffffffffffffffffffffffffffffffffffffff169060200190929190803573ffffffffffffffffffffffffffffffffffffffff169060200190929190803590602001909291908035906020019064010000000081111561086457600080fd5b82018360208201111561087657600080fd5b8035906020019184600183028401116401000000008311171561089857600080fd5b91908080601f016020809104026020016040519081016040528093929190818152602001838380828437600081840152601f19601f820116905080830192505050505050509192919290505050611c26565b005b3480156108f857600080fd5b50610901611e72565b6040518082815260200191505060405180910390f35b34801561092357600080fd5b506109506004803603602081101561093a57600080fd5b8101908080359060200190929190505050611e7f565b6040518080602001828103825283818151815260200191508051906020019080838360005b83811015610990578082015181840152602081019050610975565b50505050905090810190601f1680156109bd5780820380516001836020036101000a031916815260200191505b509250505060405180910390f35b3480156109d757600080fd5b50610a04600480360360208110156109ee57600080fd5b8101908080359060200190929190505050611fc4565b60405180848152602001806020018373ffffffffffffffffffffffffffffffffffffffff1673ffffffffffffffffffffffffffffffffffffffff168152602001828103825284818151815260200191508051906020019080838360005b83811015610a7c578082015181840152602081019050610a61565b50505050905090810190601f168015610aa95780820380516001836020036101000a031916815260200191505b5094505050505060405180910390f35b348015610ac557600080fd5b50610ace6120ef565b6040518080602001828103825283818151815260200191508051906020019080838360005b83811015610b0e578082015181840152602081019050610af3565b50505050905090810190601f168015610b3b5780820380516001836020036101000a031916815260200191505b509250505060405180910390f35b348015610b5557600080fd5b50610bcd60048036036020811015610b6c57600080fd5b8101908080359060200190640100000000811115610b8957600080fd5b820183602082011115610b9b57600080fd5b80359060200191846001830284011164010000000083111715610bbd57600080fd5b909192939192939050505061212c565b005b348015610bdb57600080fd5b50610c3e60048036036040811015610bf257600080fd5b81019080803573ffffffffffffffffffffffffffffffffffffffff169060200190929190803573ffffffffffffffffffffffffffffffffffffffff1690602001909291905050506124fb565b604051808215151515815260200191505060405180910390f35b600060016000837bffffffffffffffffffffffffffffffffffffffffffffffffffffffff19167bffffffffffffffffffffffffffffffffffffffffffffffffffffffff1916815260200190815260200160002060009054906101000a900460ff169050919050565b60606040518060400160405280600981526020017f55314c20544f4b454e0000000000000000000000000000000000000000000000815250905090565b60006004600083815260200190815260200160002060009054906101000a900473ffffffffffffffffffffffffffffffffffffffff169050919050565b6000610d458261193b565b90506000600560008373ffffffffffffffffffffffffffffffffffffffff1673ffffffffffffffffffffffffffffffffffffffff16815260200190815260200160002060003373ffffffffffffffffffffffffffffffffffffffff1673ffffffffffffffffffffffffffffffffffffffff16815260200190815260200160002060009054906101000a900460ff1690503373ffffffffffffffffffffffffffffffffffffffff168273ffffffffffffffffffffffffffffffffffffffff161480610e0c5750805b610e7e576040517f08c379a00000000000000000000000000000000000000000000000000000000081526004018080602001828103825260158152602001807f4e6f7420617070726f766564206279206f776e6572000000000000000000000081525060200191505060405180910390fd5b836004600085815260200190815260200160002060006101000a81548173ffffffffffffffffffffffffffffffffffffffff021916908373ffffffffffffffffffffffffffffffffffffffff160217905550828473ffffffffffffffffffffffffffffffffffffffff168373ffffffffffffffffffffffffffffffffffffffff167f8c5be1e5ebec7d5bd14f71427d1e84f3dd0314c0f7b2291e5b200ac8c7c3b92560405160405180910390a450505050565b6000600a80549050905090565b6000610f498261193b565b90508373ffffffffffffffffffffffffffffffffffffffff168173ffffffffffffffffffffffffffffffffffffffff1614610fcf576040517f08c379a0000000000000000000000000000000000000000000000000000000008152600401808060200182810382526023815260200180612bec6023913960400191505060405180910390fd5b600073ffffffffffffffffffffffffffffffffffffffff168373ffffffffffffffffffffffffffffffffffffffff161415611072576040517f08c379a00000000000000000000000000000000000000000000000000000000081526004018080602001828103825260188152602001807f5472616e73666572205f746f206164647265737320307830000000000000000081525060200191505060405180910390fd5b60006004600084815260200190815260200160002060009054906101000a900473ffffffffffffffffffffffffffffffffffffffff1690506000600560008473ffffffffffffffffffffffffffffffffffffffff1673ffffffffffffffffffffffffffffffffffffffff16815260200190815260200160002060003373ffffffffffffffffffffffffffffffffffffffff1673ffffffffffffffffffffffffffffffffffffffff16815260200190815260200160002060009054906101000a900460ff1690503373ffffffffffffffffffffffffffffffffffffffff168373ffffffffffffffffffffffffffffffffffffffff16148061119d57503373ffffffffffffffffffffffffffffffffffffffff168273ffffffffffffffffffffffffffffffffffffffff16145b806111a55750805b6111fa576040517f08c379a000000000000000000000000000000000000000000000000000000000815260040180806020018281038252602b815260200180612c0f602b913960400191505060405180910390fd5b846002600086815260200190815260200160002060006101000a81548173ffffffffffffffffffffffffffffffffffffffff021916908373ffffffffffffffffffffffffffffffffffffffff16021790555061129f6001600360008973ffffffffffffffffffffffffffffffffffffffff1673ffffffffffffffffffffffffffffffffffffffff1681526020019081526020016000205461258f90919063ffffffff16565b600360008873ffffffffffffffffffffffffffffffffffffffff1673ffffffffffffffffffffffffffffffffffffffff168152602001908152602001600020819055506113356001600360008873ffffffffffffffffffffffffffffffffffffffff1673ffffffffffffffffffffffffffffffffffffffff168152602001908152602001600020546125af90919063ffffffff16565b600360008773ffffffffffffffffffffffffffffffffffffffff1673ffffffffffffffffffffffffffffffffffffffff16815260200190815260200160002081905550600073ffffffffffffffffffffffffffffffffffffffff166004600086815260200190815260200160002060009054906101000a900473ffffffffffffffffffffffffffffffffffffffff1673ffffffffffffffffffffffffffffffffffffffff1614611416576004600085815260200190815260200160002060006101000a81549073ffffffffffffffffffffffffffffffffffffffff02191690555b838573ffffffffffffffffffffffffffffffffffffffff168773ffffffffffffffffffffffffffffffffffffffff167fddf252ad1be2c89b69c2b068fc378daa952ba7f163c4a11628f55a4df523b3ef60405160405180910390a4505050505050565b6000809054906101000a900473ffffffffffffffffffffffffffffffffffffffff1673ffffffffffffffffffffffffffffffffffffffff163373ffffffffffffffffffffffffffffffffffffffff161461151e576040517f08c379a0000000000000000000000000000000000000000000000000000000008152600401808060200182810382526022815260200180612b9b6022913960400191505060405180910390fd5b6000809054906101000a900473ffffffffffffffffffffffffffffffffffffffff1673ffffffffffffffffffffffffffffffffffffffff16ff5b61157383838360405180602001604052806000815250611c26565b505050565b60006115838261193b565b90503373ffffffffffffffffffffffffffffffffffffffff168173ffffffffffffffffffffffffffffffffffffffff1614611609576040517f08c379a0000000000000000000000000000000000000000000000000000000008152600401808060200182810382526028815260200180612c5b6028913960400191505060405180910390fd5b600073ffffffffffffffffffffffffffffffffffffffff166004600084815260200190815260200160002060009054906101000a900473ffffffffffffffffffffffffffffffffffffffff1673ffffffffffffffffffffffffffffffffffffffff16146116a7576004600083815260200190815260200160002060006101000a81549073ffffffffffffffffffffffffffffffffffffffff02191690555b60006002600084815260200190815260200160002060006101000a81548173ffffffffffffffffffffffffffffffffffffffff021916908373ffffffffffffffffffffffffffffffffffffffff16021790555061174d6001600360003373ffffffffffffffffffffffffffffffffffffffff1673ffffffffffffffffffffffffffffffffffffffff1681526020019081526020016000205461258f90919063ffffffff16565b600360003373ffffffffffffffffffffffffffffffffffffffff1673ffffffffffffffffffffffffffffffffffffffff16815260200190815260200160002081905550611799826125ce565b600060066000848152602001908152602001600020805460018160011615610100020316600290049050146117e8576006600083815260200190815260200160002060006117e791906129ee565b5b81600073ffffffffffffffffffffffffffffffffffffffff168273ffffffffffffffffffffffffffffffffffffffff167fddf252ad1be2c89b69c2b068fc378daa952ba7f163c4a11628f55a4df523b3ef60405160405180910390a45050565b6000611852610f31565b821061185d57600080fd5b600a828154811061186a57fe5b90600052602060002001549050919050565b6009818154811061188957fe5b90600052602060002001600091509050806000018054600181600116156101000203166002900480601f0160208091040260200160405190810160405280929190818152602001828054600181600116156101000203166002900480156119315780601f1061190657610100808354040283529160200191611931565b820191906000526020600020905b81548152906001019060200180831161191457829003601f168201915b5050505050905081565b6000806002600084815260200190815260200160002060009054906101000a900473ffffffffffffffffffffffffffffffffffffffff169050600073ffffffffffffffffffffffffffffffffffffffff168173ffffffffffffffffffffffffffffffffffffffff161415611a17576040517f08c379a00000000000000000000000000000000000000000000000000000000081526004018080602001828103825260108152602001807f546f6b656e20697320696e76616c69640000000000000000000000000000000081525060200191505060405180910390fd5b80915050919050565b600a8181548110611a2d57fe5b906000526020600020016000915090505481565b60008073ffffffffffffffffffffffffffffffffffffffff168273ffffffffffffffffffffffffffffffffffffffff161415611a7c57600080fd5b600360008373ffffffffffffffffffffffffffffffffffffffff1673ffffffffffffffffffffffffffffffffffffffff168152602001908152602001600020549050919050565b6000809054906101000a900473ffffffffffffffffffffffffffffffffffffffff1681565b60606040518060400160405280600381526020017f55314c0000000000000000000000000000000000000000000000000000000000815250905090565b80600560003373ffffffffffffffffffffffffffffffffffffffff1673ffffffffffffffffffffffffffffffffffffffff16815260200190815260200160002060008473ffffffffffffffffffffffffffffffffffffffff1673ffffffffffffffffffffffffffffffffffffffff16815260200190815260200160002060006101000a81548160ff0219169083151502179055508173ffffffffffffffffffffffffffffffffffffffff163373ffffffffffffffffffffffffffffffffffffffff167f17307eab39ab6107e8899845ad3d59bd9653f200f220920489ca2b5937696c3183604051808215151515815260200191505060405180910390a35050565b611c31848484610f3e565b611c508373ffffffffffffffffffffffffffffffffffffffff16612699565b15611e6c5760008373ffffffffffffffffffffffffffffffffffffffff1663150b7a02338786866040518563ffffffff1660e01b8152600401808573ffffffffffffffffffffffffffffffffffffffff1673ffffffffffffffffffffffffffffffffffffffff1681526020018473ffffffffffffffffffffffffffffffffffffffff1673ffffffffffffffffffffffffffffffffffffffff16815260200183815260200180602001828103825283818151815260200191508051906020019080838360005b83811015611d30578082015181840152602081019050611d15565b50505050905090810190601f168015611d5d5780820380516001836020036101000a031916815260200191505b5095505050505050602060405180830381600087803b158015611d7f57600080fd5b505af1158015611d93573d6000803e3d6000fd5b505050506040513d6020811015611da957600080fd5b810190808051906020019092919050505090506040518080612bbd602f9139602f01905060405180910390207bffffffffffffffffffffffffffffffffffffffffffffffffffffffff1916817bffffffffffffffffffffffffffffffffffffffffffffffffffffffff191614611e6a576040517f08c379a0000000000000000000000000000000000000000000000000000000008152600401808060200182810382526021815260200180612c3a6021913960400191505060405180910390fd5b505b50505050565b6000600880549050905090565b606081611e9e600b600085815260200190815260200160002054611848565b14611f11576040517f08c379a00000000000000000000000000000000000000000000000000000000081526004018080602001828103825260148152602001807f54686520746f6b656e20697320696e76616c696400000000000000000000000081525060200191505060405180910390fd5b600660008381526020019081526020016000208054600181600116156101000203166002900480601f016020809104026020016040519081016040528092919081815260200182805460018160011615610100020316600290048015611fb85780601f10611f8d57610100808354040283529160200191611fb8565b820191906000526020600020905b815481529060010190602001808311611f9b57829003601f168201915b50505050509050919050565b60006060600060088481548110611fd757fe5b90600052602060002090600302016000015460088581548110611ff657fe5b90600052602060002090600302016001016008868154811061201457fe5b906000526020600020906003020160020160009054906101000a900473ffffffffffffffffffffffffffffffffffffffff16818054600181600116156101000203166002900480601f0160208091040260200160405190810160405280929190818152602001828054600181600116156101000203166002900480156120db5780601f106120b0576101008083540402835291602001916120db565b820191906000526020600020905b8154815290600101906020018083116120be57829003601f168201915b505050505091509250925092509193909250565b60606040518060400160405280601d81526020017f68747470733a2f2f676174657761792e697066732e696f2f697066732f000000815250905090565b612134612a36565b604051806020016040528084848080601f016020809104026020016040519081016040528093929190818152602001838380828437600081840152601f19601f8201169050808301925050505050505081525090506000600160098390806001815401808255809150509060018203906000526020600020016000909192909190915060008201518160000190805190602001906121d3929190612a49565b505050039050336002600083815260200190815260200160002060006101000a81548173ffffffffffffffffffffffffffffffffffffffff021916908373ffffffffffffffffffffffffffffffffffffffff16021790555061227e6001600360003373ffffffffffffffffffffffffffffffffffffffff1673ffffffffffffffffffffffffffffffffffffffff168152602001908152602001600020546125af90919063ffffffff16565b600360003373ffffffffffffffffffffffffffffffffffffffff1673ffffffffffffffffffffffffffffffffffffffff16815260200190815260200160002081905550600a80549050600b600083815260200190815260200160002081905550600a8190806001815401808255809150509060018203906000526020600020016000909192909190915055506008604051806060016040528083815260200186868080601f016020809104026020016040519081016040528093929190818152602001838380828437600081840152601f19601f8201169050808301925050505050505081526020013373ffffffffffffffffffffffffffffffffffffffff16815250908060018154018082558091505090600182039060005260206000209060030201600090919290919091506000820151816000015560208201518160010190805190602001906123d2929190612a49565b5060408201518160020160006101000a81548173ffffffffffffffffffffffffffffffffffffffff021916908373ffffffffffffffffffffffffffffffffffffffff1602179055505050506124726124286120ef565b85858080601f016020809104026020016040519081016040528093929190818152602001838380828437600081840152601f19601f820116905080830192505050505050506126e4565b600660008381526020019081526020016000209080519060200190612498929190612ac9565b50803373ffffffffffffffffffffffffffffffffffffffff16600073ffffffffffffffffffffffffffffffffffffffff167fddf252ad1be2c89b69c2b068fc378daa952ba7f163c4a11628f55a4df523b3ef60405160405180910390a450505050565b6000600560008473ffffffffffffffffffffffffffffffffffffffff1673ffffffffffffffffffffffffffffffffffffffff16815260200190815260200160002060008373ffffffffffffffffffffffffffffffffffffffff1673ffffffffffffffffffffffffffffffffffffffff16815260200190815260200160002060009054906101000a900460ff16905092915050565b60008282111561259e57600080fd5b600082840390508091505092915050565b6000808284019050838110156125c457600080fd5b8091505092915050565b60006125e96001600a8054905061258f90919063ffffffff16565b90506000600b60008481526020019081526020016000205490506000600a838154811061261257fe5b9060005260206000200154905080600a838154811061262d57fe5b906000526020600020018190555081600b60008381526020019081526020016000208190555061266c6001600a8054905061258f90919063ffffffff16565b600a816126799190612b49565b506000600b60008681526020019081526020016000208190555050505050565b60008060007fc5d2460186f7233c927e7db2dcc703c0e500b653ca82273b7bfad8045d85a47060001b9050833f91506000801b82141580156126db5750808214155b92505050919050565b60606127208383604051806020016040528060008152506040518060200160405280600081525060405180602001604052806000815250612728565b905092915050565b6060808690506060869050606086905060608690506060869050606081518351855187518951010101016040519080825280601f01601f1916602001820160405280156127845781602001600182028038833980820191505090505b5090506060819050600080905060008090505b8851811015612805578881815181106127ac57fe5b602001015160f81c60f81b8383806001019450815181106127c957fe5b60200101907effffffffffffffffffffffffffffffffffffffffffffffffffffffffffffff1916908160001a9053508080600101915050612797565b5060008090505b875181101561287a5787818151811061282157fe5b602001015160f81c60f81b83838060010194508151811061283e57fe5b60200101907effffffffffffffffffffffffffffffffffffffffffffffffffffffffffffff1916908160001a905350808060010191505061280c565b5060008090505b86518110156128ef5786818151811061289657fe5b602001015160f81c60f81b8383806001019450815181106128b357fe5b60200101907effffffffffffffffffffffffffffffffffffffffffffffffffffffffffffff1916908160001a9053508080600101915050612881565b5060008090505b85518110156129645785818151811061290b57fe5b602001015160f81c60f81b83838060010194508151811061292857fe5b60200101907effffffffffffffffffffffffffffffffffffffffffffffffffffffffffffff1916908160001a90535080806001019150506128f6565b5060008090505b84518110156129d95784818151811061298057fe5b602001015160f81c60f81b83838060010194508151811061299d57fe5b60200101907effffffffffffffffffffffffffffffffffffffffffffffffffffffffffffff1916908160001a905350808060010191505061296b565b50819850505050505050505095945050505050565b50805460018160011615610100020316600290046000825580601f10612a145750612a33565b601f016020900490600052602060002090810190612a329190612b75565b5b50565b6040518060200160405280606081525090565b828054600181600116156101000203166002900490600052602060002090601f016020900481019282601f10612a8a57805160ff1916838001178555612ab8565b82800160010185558215612ab8579182015b82811115612ab7578251825591602001919060010190612a9c565b5b509050612ac59190612b75565b5090565b828054600181600116156101000203166002900490600052602060002090601f016020900481019282601f10612b0a57805160ff1916838001178555612b38565b82800160010185558215612b38579182015b82811115612b37578251825591602001919060010190612b1c565b5b509050612b459190612b75565b5090565b815481835581811115612b7057818360005260206000209182019101612b6f9190612b75565b5b505050565b612b9791905b80821115612b93576000816000905550600101612b7b565b5090565b9056fe4f6e6c79206f776e65722063616e2063616c6c20746869732066756e6374696f6e2e6f6e455243373231526563656976656428616464726573732c616464726573732c75696e743235362c6279746573295f66726f6d206973204e4f5420746865206f776e6572206f662074686520746f6b656e6d73672e73656e64657220646f6573206e6f742068617665207472616e7366657261626c6520746f6b656e72656365697074206f6620746f6b656e206973204e4f5420636f6d706c657465646d73672e73656e646572206973204e4f5420746865206f776e6572206f662074686520746f6b656ea265627a7a72315820ec33d6d612d08688c7dd788a981c0e60ef1afb2d71160dab42d407664774238664736f6c63430005100032",
  "source": "pragma solidity ^0.5.0;\n\nimport \"./ERC721.sol\";\nimport \"./ERC165.sol\";\nimport \"./SafeMath.sol\";\nimport \"./Address.sol\";\nimport \"./Strings.sol\";\n\ncontract DeedIPFSToken is ERC721, ERC165 {\n    using SafeMath for uint256;\n    using Address for address;\n\n    address payable public owner;\n    mapping(bytes4 => bool) supportedInterfaces;\n\n    mapping(uint256 => address) tokenOwners;\n    mapping(address => uint256) balances;\n    mapping(uint256 => address) allowance;\n    mapping(address => mapping(address => bool)) operators;\n\n    // NFT   . \n    mapping(uint256 => string) tokenURIs;\n\n      //nft    \n    // mapping(uint256 => mapping(string => address)) MyNFT; \n    // (     nft .)\n    // mapping(uint => allCreate)AllNfts;  \n        //nft    \n    mapping(uint256 => mapping(string => address)) MyNFT; \n    // (     nft .)\n    // mapping(uint256 => address)AllNfts;  \n\n\n\n    struct asset {\n        string ipfsHash;\n    }\n     //struct \n    struct allNFT{\n        uint256 tokenId; // \n        string ipfsHash; //    \n        address tokenOwner; //    \n    }\n\n    //struct =>  \n    allNFT[] allNFTs;\n\n    asset[] public allTokens;//   \n\n\n    //for enumeration\n    uint256[] public allValidTokenIds; //same as allTokens but does't have invalid tokens\n    mapping(uint256 => uint256) private allValidTokenIndex;\n\n    modifier onlyOwner() {\n        require(msg.sender == owner, \"Only owner can call this function.\");\n        _;\n    }\n\n    constructor() public {\n        owner = msg.sender;\n        supportedInterfaces[0x01ffc9a7] = true; //ERC165\n        supportedInterfaces[0x80ac58cd] = true; //ERC721\n        supportedInterfaces[0x5b5e139f] = true; //ERC721Metadata\n    }\n\n    function supportsInterface(bytes4 interfaceID)\n        external\n        view\n        returns (bool)\n    {\n        return supportedInterfaces[interfaceID];\n    }\n\n    function balanceOf(address _owner) external view returns (uint256) {\n        require(_owner != address(0));\n        return balances[_owner];\n    }\n\n    function ownerOf(uint256 _tokenId) public view returns (address) {\n        address addr_owner = tokenOwners[_tokenId];\n        require(addr_owner != address(0), \"Token is invalid\");\n        return addr_owner;\n    }\n\n    //////////////////////////////////////////////////////////////////\n    function transferFrom(\n        address _from,\n        address _to,\n        uint256 _tokenId\n    ) public payable {\n        address addr_owner = ownerOf(_tokenId);\n        require(addr_owner == _from, \"_from is NOT the owner of the token\");\n        require(_to != address(0), \"Transfer _to address 0x0\");\n        address addr_allowed = allowance[_tokenId];\n        bool isOp = operators[addr_owner][msg.sender];\n        require(\n            addr_owner == msg.sender || addr_allowed == msg.sender || isOp,\n            \"msg.sender does not have transferable token\"\n        );\n        //transfer : change the owner of the token\n        tokenOwners[_tokenId] = _to;\n        balances[_from] = balances[_from].sub(1);\n        balances[_to] = balances[_to].add(1);\n        //reset approved address\n        if (allowance[_tokenId] != address(0)) {\n            delete allowance[_tokenId];\n        }\n        emit Transfer(_from, _to, _tokenId);\n    }\n    //////////////////////////////////////////////////////////////////\n\n    function safeTransferFrom(\n        address _from,\n        address _to,\n        uint256 _tokenId,\n        bytes memory data\n    ) public payable {\n        transferFrom(_from, _to, _tokenId);\n\n        //check if _to is CA\n        if (_to.isContract()) {\n            bytes4 result = ERC721TokenReceiver(_to).onERC721Received(\n                msg.sender,\n                _from,\n                _tokenId,\n                data\n            );\n\n            require(\n                result ==\n                    bytes4(\n                        keccak256(\n                            \"onERC721Received(address,address,uint256,bytes)\"\n                        )\n                    ),\n                \"receipt of token is NOT completed\"\n            );\n        }\n    }\n\n    function safeTransferFrom(\n        address _from,\n        address _to,\n        uint256 _tokenId\n    ) public payable {\n        safeTransferFrom(_from, _to, _tokenId, \"\");\n    }\n\n    function approve(address _approved, uint256 _tokenId) external payable {\n        address addr_owner = ownerOf(_tokenId);\n        bool isOp = operators[addr_owner][msg.sender];\n\n        require(addr_owner == msg.sender || isOp, \"Not approved by owner\");\n\n        allowance[_tokenId] = _approved;\n\n        emit Approval(addr_owner, _approved, _tokenId);\n    }\n\n    function setApprovalForAll(address _operator, bool _approved) external {\n        operators[msg.sender][_operator] = _approved;\n        emit ApprovalForAll(msg.sender, _operator, _approved);\n    }\n\n    function getApproved(uint256 _tokenId) external view returns (address) {\n        return allowance[_tokenId];\n    }\n\n    function isApprovedForAll(address _owner, address _operator)\n        external\n        view\n        returns (bool)\n    {\n        return operators[_owner][_operator];\n    }\n\n    //non-ERC721 standard\n    //\n    //\n    function() external payable {}\n\n    function mint(string calldata ipfsHash) external {\n        asset memory newAsset = asset(ipfsHash);\n        uint256 tokenId = allTokens.push(newAsset) - 1;\n        //tokenid starts from 0, index of assets array\n        tokenOwners[tokenId] = msg.sender;\n        balances[msg.sender] = balances[msg.sender].add(1);\n        //for enumeration\n        allValidTokenIndex[tokenId] = allValidTokenIds.length;\n        //index starts from 0\n        allValidTokenIds.push(tokenId);\n        // MyNFT[tokenURIs[tokenId]] = msg.sender;\n        //mapping(uint256 => mapping(string => address)) MyNFT;\n        //   //  \n        allNFTs.push(allNFT(tokenId, ipfsHash, msg.sender ));\n        //Token Metadata\n        //tokenURIs[tokenId] = Strings.strConcat(baseTokenURI(), \"QmdDW36bvr2W6ua4FxnT8bKysXhYEUo7QbLTbkGW4Foxr8\");\n        tokenURIs[tokenId] = Strings.strConcat(baseTokenURI(), ipfsHash);\n        // allAddresses.push(tokenURIs[0]);\n        // allAddresses.push(msg.sender); // allAddresses nft   \n        emit Transfer(address(0), msg.sender, tokenId);\n    }\n\n    function getLength() public view returns (uint256) {\n        return allNFTs.length;\n    }\n\n    \n    function getAllNFTs(uint _number) public view returns (uint256, string memory, address){\n        return (allNFTs[_number].tokenId, allNFTs[_number].ipfsHash, allNFTs[_number].tokenOwner);\n    }\n    \n\n    function burn(uint256 _tokenId) external {\n        address addr_owner = ownerOf(_tokenId);\n\n        require(\n            addr_owner == msg.sender,\n            \"msg.sender is NOT the owner of the token\"\n        );\n\n        //reset approved address\n        if (allowance[_tokenId] != address(0)) {\n            delete allowance[_tokenId];\n            // tokenId => 0\n        }\n\n        //transfer : change the owner of the token, but address(0)\n        tokenOwners[_tokenId] = address(0);\n        balances[msg.sender] = balances[msg.sender].sub(1);\n\n        //for enumeration\n        removeInvalidToken(_tokenId);\n\n        //clear metadata if exists\n        if (bytes(tokenURIs[_tokenId]).length != 0) {\n            delete tokenURIs[_tokenId];\n        }\n\n        emit Transfer(addr_owner, address(0), _tokenId);\n    }\n\n    function removeInvalidToken(uint256 tokenIdToRemove) private {\n        uint256 lastIndex = allValidTokenIds.length.sub(1);\n        uint256 removeIndex = allValidTokenIndex[tokenIdToRemove];\n\n        uint256 lastTokenId = allValidTokenIds[lastIndex];\n\n        //swap\n        allValidTokenIds[removeIndex] = lastTokenId;\n        allValidTokenIndex[lastTokenId] = removeIndex;\n\n        //delete\n        //Arrays have a length member to hold their number of elements.\n        //Dynamic arrays can be resized in storage (not in memory) by changing the .length member.\n        allValidTokenIds.length = allValidTokenIds.length.sub(1);\n        //allValidTokenIndex is private so can't access invalid token by index programmatically\n        allValidTokenIndex[tokenIdToRemove] = 0;\n    }\n\n    function baseTokenURI() public pure returns (string memory) {\n        return \"https://gateway.ipfs.io/ipfs/\";\n    }\n\n    //ERC721Enumerable\n    function totalSupply() public view returns (uint256) {\n        return allValidTokenIds.length;\n    }\n\n    //ERC721Enumerable\n    function tokenByIndex(uint256 index) public view returns (uint256) {\n        require(index < totalSupply());\n        return allValidTokenIds[index];\n    }\n\n    //ERC721Metadata\n    function name() external pure returns (string memory) {\n        return \"U1L TOKEN\";\n    }\n\n    //ERC721Metadata\n    function symbol() external pure returns (string memory) {\n        return \"U1L\";\n    }\n\n    //ERC721Metadata\n    function tokenURI(uint256 _tokenId) external view returns (string memory) {\n        require(\n            tokenByIndex(allValidTokenIndex[_tokenId]) == _tokenId,\n            \"The token is invalid\"\n        );\n        return tokenURIs[_tokenId];\n    }\n\n    function kill() external onlyOwner {\n        selfdestruct(owner);\n    }\n}\n\ncontract ERC721TokenReceiver {\n    function onERC721Received(\n        address _operator,\n        address _from,\n        uint256 _tokenId,\n        bytes memory _data\n    ) public returns (bytes4);\n}",
  "sourcePath": "/home/parkhyunwoo/U1L/contracts/DeedIPFSToken.sol",
  "compiler": {
    "name": "solc",
    "version": "0.5.16+commit.9c3226ce.Emscripten.clang"
  },
  "schemaVersion": "3.4.1",
  "updatedAt": "2021-08-27T06:10:35.425Z",
  "networkType": "ethereum",
  "devdoc": {
    "methods": {}
  },
  "userdoc": {
    "methods": {
      "safeTransferFrom(address,address,uint256,bytes)": {
        "notice": "///////////////////////////////////////////////////////////////"
      },
      "transferFrom(address,address,uint256)": {
        "notice": "///////////////////////////////////////////////////////////////"
      }
    }
  }
}